:040000000C948900D3
:100004000C9400000C9400000C9400000C9400006C
:100014000C9400000C9400000C9400000C9400005C
:100024000C9400000C9400000C9400000C9400004C
:100034000C9400000C9400000C9400000C9400003C
:100044000C9400000C9400000C9400000C9400002C
:100054001027E80364000A000100001000011000EA
:1000640001000000001E002800001E0000401C4685
:10007400CB48843AD66479396CCF58344D616E7567
:10008400616C0054656D703A202564DF430041754E
:10009400746F00543A202564DF43004D3A202564F0
:1000A400DF430053657474696E6700546872657346
:1000B400686F6C643A202564DF43000080C001004F
:1000C4002D4E414E00494E460000070005006600D3
:1000D400010084016E0004008A01700004009A018A
:1000E400740004009E0178000400A2017C00070053
:1000F4006001800005006701920008006C01A70000
:100104000200A601C0000100AC01C2000000F89486
:10011400EE27ECBBF1E0FBBFEBBFE5BF8DE0A2E057
:10012400BB27ED938A95E9F780E094E0A0E6ED9390
:100134000197E9F7EEECF0E085919591009761F075
:10014400A591B59105901590BF01F00105900D9210
:100154000197E1F7FB01F0CFEFE5EDBFE4E0EEBF7F
:10016400C0E6D1E00C945201E0E4E7B9E0E8E6B976
:10017400E6B1E660E6B90895AA93E7B1E87FAE2F49
:10018400E881E770EA2BE7B98BE18A95F1F7369AB3
:10019400349BFECF349AE4B1F5B10C9471022497E8
:1001A400A0E0EADF662777270E94F8050E9452073D
:1001B400A0E0B0EC8FE794E40E94D006DF01CB010D
:1001C400E0E0F0E060E87FE30E9461070E942B0614
:1001D400A0918A01B0918B0180918C0190918D0145
:1001E4000E948206E0939201F0939301609394013C
:1001F40070939501A0919201B09193018091940123
:10020400909195010E941504E0938E01F0938F0163
:1002140060939001709391010E94C204A0919E0189
:10022400B0919F018091A0019091A1010E9482064A
:10023400A0919A01B0919B0180919C0190919D01A4
:100244000E9432067F936F93FF93EF930E94C20440
:10025400A091A201B091A3018091A4019091A50164
:100264000E94CB040E94CB040E948206AF91BF91EE
:100274008F919F910E9432060E94D6040E94D0065C
:10028400E0939601F093970160939801709399011C
:10029400A3E3B3E988E893E40E942B062496089527
:1002A4008C9A949A8D9A959AE1B3E07FE1BBE2B37C
:1002B400EF60E2BBA0E1E6D057DF809907C053941A
:1002C400E2E0E51508F45524809BFECF5520E9F4BF
:1002D400A1D0E5E00E94DB04A0E6B1E00E94DF04C7
:1002E400E7E8F0E00E94F304819906C0E2B3A0E1DC
:1002F400EA27E2BB819BFECF839906C0E2B3A0E26A
:10030400EA27E2BB839BFECF52C0E1E0E51551F53D
:1003140081D0E6E00E94DB04A7E6B1E00E94DF049E
:10032400E7E9F0E00E94F304E4E7F1E0FA93EA93EA
:10033400EFE9F0E00E940705E8E00E941605E0916D
:100344008401F0918501EC15FD0514F4949A08C01C
:10035400E0918401F0918501CE16DF0614F494989F
:10036400959825C057D0E0E00E94DB04ACE6B1E0EC
:1003740078D0E4E7F1E0FA93EA93EFEAF0E00E9440
:100384000705E0E00E941605829906C0A4E8B1E0E2
:100394000E941E050E942405839909C0A4E8B1E0C7
:1003A400ED91FD913197FE93EE930E9424050E94F6
:1003B400240583CFFFCFAA93E5B3EF70AE2FE88176
:1003C400E07FEA2BE5BB8DE08A95F1F7AB9A8DE0EF
:1003D4008A95F1F7AB988DE08A95F1F780C0AA93DE
:1003E400A881E9DFE881E295E883A881E4DF85E874
:1003F4008A95F1F774C0AA93E881F0E0EA55FE4FBC
:10040400E081A981AE0FEBDF4980E881E093AA0186
:1004140022960895A2E00E942805ACE0E0DFA1E066
:100424000E942805E0E0E093AA014E2E0895AA93C5
:10043400A881AA3021F0E091AB014E1660F0E0E013
:10044400EA93A091AA01AF5FA093AA01D4DFA88187
:10045400AA3009F444C04394A99AA881C0DFA9989A
:100464003EC0BA93AA931A93A981BA81ED91A98344
:10047400BA831E2FE03019F0A12FD9DFF5CF1881F0
:1004840023960895AA93E4B3E06FE4BBA39AA19AD8
:10049400A29AAB98A998AA98E881E093AB01E05896
:1004A400E093A801E881E054E093A901A4E1B0E05D
:1004B4000E9471050E942E050E942E050E942E05A1
:1004C400A0E279DF88EC90E00197F1F7A8E287DFFA
:1004D400A4E085DFA5E883DFA6E081DF9BDF21962A
:1004E4000895BA93AA931A930A93AA81BB81129688
:1004F4000E944A07309729F1AA81BB8114960E9471
:100504004A078F01309761F00230E0E01E0780F067
:10051400F80131978F01AA81BB811496ED93FC9366
:10052400AA81BB8112960E941E053197AC81A083DB
:10053400AA81BB810E944A07FF2312F00E941E0574
:1005440006C0AA81BB81EFEFFFEFED93FC93198105
:10055400088125960895BA93AA9326970E94740752
:1005640010E0AC85BD85E0E0F0E0ED93FC93EA8912
:10057400FB893196EA8BFB8B3197E4912E2FE03087
:1005840009F415C1E12FE03039F4253211F411E0FA
:1005940002C00E9436050AC1E130A9F4253219F4DB
:1005A4000E94360502C112E040E000E02D3211F451
:1005B40001E0FCC02B3211F44BE2F8C0203211F4FC
:1005C40040E2F4C002C0E23039F450E013E02033DA
:1005D40011F40068EBC003C0E33009F0E7C0203336
:1005E40010F02A3308F007C0AAE05A9F502DE22FDA
:1005F400E0535E0FDBC0E22FE33649F40E943D0571
:10060400E889F989A481AA930E944305CEC0E337FF
:1006140041F40E943D050E9449050E94A9041E2F31
:100624000AC0E03761F40E943D050E9449050E941A
:10063400B5041E2F086002600F7730E034C0E43642
:1006440011F0E93611F4046002C0E53731F4E4E551
:10065400F0E0EE83FF8315E00CC0E83511F4086088
:1006640003C0E83709F0A1C0EEE5F0E0EE83FF83B4
:1006740014E002FF14C00E943D050E945305AB859F
:10068400AA233AF4EA85FB850E943907EA87FB87A7
:100694004DE2403011F01F5F01C00B7F04C00E9487
:1006A4003D050E94530500FD11C0151778F407FF9E
:1006B40008C002FF04C00B7F242F115001C020E3A7
:1006C40001C020E20E9436055150EFCF312F01FFC7
:1006D40017C03030A1F003FF06C0EE81FF812591E1
:1006E400EE83FF8305C0AE81BF812D91AE83BF83AE
:1006F4000E943605503009F051503150EACF4BC0BA
:1007040020E3EE81FF810E944E07E887F987EE819E
:10071400FF813296EE83FF83E885F985AA85BB8540
:10072400AE17BF0750F02F5FA885B985EA85FB8512
:10073400EA1BFB0BEA87FB87EFCF2A3328F003FF82
:1007440002C0295F01C0295D04FD1AC0213320F4D1
:10075400A885B985119709F409C0531710F000FF53
:1007640001C013C020E207FF0BC020E3006102FFB9
:1007740007C00B7F4A930E944305503009F0515043
:100784000E943605503009F051503150A885B98582
:10079400129708F0B5CF00FF08C0503031F0515027
:1007A400E0E2EA930E944305F8CF10E0E0CEAC8586
:1007B400BD850E944A070E947B0764960895FF92B4
:1007C400F82E26970E9476070E945B05309719F44D
:1007D400EFEFFFEF23C0DE0116960E9435078D016F
:1007E4000E945B05EE83FF83E0E0E887E987DE0192
:1007F4001A960E9435070E944A07FA93EA931A93BD
:100804000A93E3E7F2E0FA93EA93DE011A96A3DE91
:100814009F01AE81BF81E0E0EC93F9010E947D0766
:100824002A96FF9008950E945C0724971A930A93CE
:100834000E9462050E946E072CF0EFEFFFEF6FE756
:100844007FEF81C00E9467050E945707ADB7BEB70E
:1008540011971F930F930E947B050F911F910E9484
:100864006C050E946205E3EFF4E065E37FE30E9418
:10087400150750F40E9467050E9462050E94320623
:100884000E946C05015010400E9467050E94D60426
:100894000E942B067F936F93FF93EF930E9467054B
:1008A4000E94D6040E943206AF91BF918F919F910E
:1008B4000E94D0060E946C050E9467050E94620592
:1008C4000E948206EA83FB836C837D83A6E2B2E402
:1008D40085E69FE30E948206DF01CB01EEE4F1E1AD
:1008E40064E570E40E9461070E942B060E94620581
:1008F4000E9482067F936F93FF93EF93EA81FB81BB
:100904006C817D81ADE4B1E184ED9FE30E942B060F
:10091400AF91BF918F919F910E94D0067F936F9367
:10092400FF93EF93F8010E9445070E94F805A8E1A0
:10093400B2E781E39FE30E948206AF91BF918F915A
:100944009F910E943206198108812A960895BA93CC
:10095400AA93A991B991EE27FF276D91662311F00F
:100964003196FBCF0895BA93AA93AA27BB27E9919E
:10097400F9910590002011F01196FBCFFD01089527
:10098400E0918E01F0918F0160919001709191013D
:1009940008950E948206A0918E01B0918F018091EA
:1009A4009001909191010895A0E0B0E080E89FE368
:1009B4000895EA93A0E00C94FD010E9433020E9482
:1009C400D100E0938601F0938701609388017093CE
:1009D40089010E94C1056F01E4E7F1E0FA93EA930B
:1009E4000895FA93EA93F6010E9445070E94570777
:1009F40084E00E94E1032896E0E0EA93A1E00E94EB
:100A0400FD01A4E7B1E00C943302FA93EA93E09178
:100A14008401F09185010E9445070E94570784E0F4
:100A24000E94E10328960895EA93A1E00E94FD0143
:100A3400A4E7B1E00C943302ED91FD913196FE935D
:100A4400EE930895A4E6B0E00C9471050E94F101C0
:100A5400A3E0B0E00C947105A0E30E94DD0188ECF2
:100A640090E00197F1F708952A93AD85BE85EF854F
:100A7400F88909950895E889F9893497E88BF98B01
:100A84000895AD85BE85EF85F88909950895A889EF
:100A9400B98914960E944A07EE83FF83AE81BF8111
:100AA4000895A889B98914960E944A07EA87FB87A2
:100AB4000895DE011C960E9435070E944A07089596
:100AC400AE81BF81888599850895EE81FF8168850F
:100AD40079850895EE83FF83688779870895109652
:100AE40039F080ED97E00197F1F7A8951197C9F7D0
:100AF4000895E991F9916991799177FB660F771FD0
:100B040088277E57880B7D938C937EE7769567952F
:100B14000EF0089530976040704009F070580895C1
:100B2400552342F4503811F4E0FF04C03196691F94
:100B3400791F6BF050E8572711F45F93CFC05F3FE4
:100B440031F0660F000C57956795752F08955F93E4
:100B540000200AF0CFC0C8C050E8192E1522880F13
:100B6400991F9527550F879550E8072E0522660F84
:100B7400771F7527550F67950895689401C0E89409
:100B84005F93F2DF703818F07F3F08F4A7C056E196
:100B9400571BAAF4519558300EF4593030F0EFEF4A
:100BA400FFEF6FEF7FE777F91AC077275523B9F086
:100BB400EE0FFF1F661F771F5A95D1F710C07727D6
:100BC400583028F0EF2FF62F672F5850F9CF5523C0
:100BD40031F076956795F795E7955A95D1F700200A
:100BE4000AF449D15F910895689401C0E89430975C
:100BF40060407040B1F0002426F0772312F4009492
:100C04003AD1172E7EE1112032F07A95EE0FFF1FB4
:100C1400661F111CF9CFEF2FF62F612D5F938ADF2A
:100C24005F9108954F93AF01FD01DA01AB01BC015F
:100C3400CA01402D012C142E4F910895EA0FFB1F79
:100C4400681F0895E095F0956095EF5FFF4F6F4F33
:100C540008955F9381DF903871F150E8152604C040
:100C64005F937ADF903839F1703821F1572F591B8F
:100C74002BF112F4D7DFFACF583118F0AA27BB278B
:100C84008827583028F0AB2FB82F88275850F9CF31
:100C9400552329F08695B795A7955A95D9F7502DE0
:100CA400512572F0CBDF38F46795F795E795739586
:100CB40013F420C0B7DF3EDF5F910895D8F7FBCF70
:100CC400EA1BFB0B680B51F010F40094BBDF6623A6
:100CD40092F3EE0FFF1F661F7A95CBF7EE27FF27DF
:100CE400662777275F910895EFEFFFEF6FE77FEFB8
:100CF4005F910895EFEFFFEF6FE77FE75F9108954E
:100D04005F932ADF703851F3903841F3012408943B
:100D1400791F23F41CF300203AF3ECCF0F921F93B6
:100D24002F933F934F93112722279927689FA00160
:100D34008F9F302D410D591F6B9F300D411D591F41
:100D44008E9F27D0BF9F25D06A9F23D0BE9F1DD0E2
:100D5400AF9F1BD0AE9F110D291F391F491F591F6B
:100D6400E32FF42F652F522F4F913F912F911F9115
:100D74000F9066232AF0550FEE1FFF1F661F02C057
:100D840073954BF2CDDE5F910895100D211D391F2F
:100D940002C0200D311D491F591F08955F93DCDEE9
:100DA400703821F411200AF49FCFA4CF903809F4AD
:100DB40095CF01240894970B1BF4D4F30020F3CFB0
:100DC400792F1F932F933F934F9311241127222799
:100DD40033274427552790E2AE17BF0786074107FC
:100DE40030F0AE1BBF0B860B410B089401C08894F6
:100DF400551F221F331F111CAA1FBB1F881F441F0E
:100E04009A9551F7F901612D4F913F912F911F91BF
:100E1400662332F0550FEE1FFF1F661F7A9543F2CB
:100E24007FDE5F91089599239AF0772342F0971714
:100E340048F029F4AE17BF07860720F031F09894E4
:100E4400889408959894089408951894889408951B
:100E54007723C2F7971798F3A9F7EA17FB076807F0
:100E640088F399F3ECCF0024AF0DB01D0895F195EC
:100E7400E195F0400895F09560957095E195FF4FE8
:100E84006F4F7F4F08956F2F660F660B762F08956F
:100E9400ED91FC91119708950590F491E02D08953A
:100EA400E883F9836A837B8308957A936A93FA9338
:100EB400EA9308959A938A93BA93AA930895182E5D
:100EC400862F612D192E972F712D1B2EBF2FF12DDB
:100ED4001A2EAE2FE12D089500240A160B060806DB
:100EE400090608955A934A933A932A931A930A93B4
:100EF40008955D814C813B812A811981088108957F
:00000001FF
